S3250800000000000120A1030008610E0008650E0008690E00086D0E0008710E00080D15000860
S325080000200D1500080D1500080D1500080D1500080D1500080D1500080D150008211500084E
S325080000400D1500080D1500080D1500080D1500080D1500080D150008B50E0008D50E0008E0
S32508000060F50E0008150F0008350F0008010D0008190D0008310D00084D0D0008690D000885
S32508000080850D0008A10D0008C50A00080D150008552000080D1500080D150008550F0008C4
S325080000A055180008791800089D180008D51800082919000899190008091A0008BD1200086C
S325080000C0D5120008C9120008E11200080D1500080D150008CD3A0008313B0008953B000896
S325080000E0990F00080D1500080D150008311B0008551B0008791B0008B11B00081D0B000882
S325080001000D1500080D150008791A00080D150008B11E0008011F0008E91A00080D1B00087E
S32508000120BD0D0008D50D0008ED0D0008090E000810B5054C237833B9044B13B10448AFF336
S3250800014000800123237010BDB01000200000000048C3030808B5034B1BB103490348AFF387
S32508000160008008BD00000000B410002048C3030810B512490A2309220968114800F0E8F91F
S3250800018010490323022209680F4800F0E1F90F491B231A2209680E4800F0DAF90D492B231C
S325080001A02A2209680C4800F0D3F9BDE810400B4932232C2209680A4800F0CAB99C02002084
S325080001C0CC100020A0020020E4100020A4020020FC10002094020020141100209802002098
S325080001E02C11002010B5044600F0EEFC034B2046BDE81040197800F04FBC00BF1600002081
S32508000200F8B50446056801F0E7F9002223685B0103F184431A6080232B600123AB622A6173
S32508000220EA606B61637973B1012B0FD0012223685B0103F18443C3F8802223685B0103F192
S3250800024084431A60F8BD4FF400436B644FF6FF7200252368DA626E1CF7B23946204601F09A
S32508000260D1F9E8B148F6FF72236817F0010F03F1340343F8252014BF6FF0FF026FF47F42BA
S3250800028023684FEA650503F1180353F8251001EA020114BF68224FF4D0420A4343F8252026
S325080002A0042E3546D7D1C1E77047000038B50025264A274C1368022043F01003136000F041
S325080002C08DFE002001F076F865602368182023F40023236001F07AF8102001F077F800F0DE
S325080002E043F8A560102001F065F8102001F08BF80028FAD000F039F8164801F091F818206B
S3250800030001F058F8182001F07EF80028FAD0022001F040F800214FF0006001F011F80E48A2
S3250800032001F0F6F800F038F80C4B188800F034FC0B4800F035FC0B4801F028F903F00BFBC7
S3250800034000F02CF8FFF7B0FF38BD00BF00200240001002400C0000203F19010014000020B5
S32508000360E5010008010200087047002108B5084601F0A4F84FF48061012001F09FF8002118
S32508000380022001F09BF82D2001F0A8F8BDE808400021032001F092B800F034BE00F07FBE50
S325080003A001498D460149084700000120B103000808B5114B1A68114B9A4213D1104B114A2F
S325080003C0934213D335F018F800221146104602F09DFE0D4B7BB134F0ABFD52F8041B0433D3
S325080003E043F8041C09498B42F7D3E7E70022043343F8042CE3E7FEE7985404080000002052
S32508000400B010002038470020314F0308B010002010B50D4B1A680AB90C4A1A601A680C49DB
S32508000420891A814204DB09494442511AA14207DA34F078FD0C234FF0FF320360104610BDA4
S3250800044010441860FAE700BF441100203847002000D60428002070474FF4005300204B60D4
S325080004607047012070474FF0FF3070470020704710B50C46FFF7FAFF2070012010BD7047A8
S3250800048070B515460C468E18B44201D1284670BD14F8010BFFF7F3FFF6E7FEE7C38882885C
S325080004A09B1AC2888188914282BF028901329B1898B2704710B5036904465868FFF7EEFF82
S325080004C088B123695B689A88196892B2885C99881A89C0B292B28A420FBF00229A88013230
S325080004E092B29A8010BD4FF0FF30FBE708B503695868FFF7D3FF08BD03695B689988DA884B
S3250800050092B28A421FBF9A881B6892B2985C14BFC0B24FF0FF307047026991688888CB88D1
S325080005209BB28342FAD1126813685B06FCD5704713B504698DF8071001220DF10701204692
S3250800054001F0ABFB0028F7D0012002B010BD000030B54FF0000C4FF47A75C0E901C5034D46
S32508000560016105600275437530BD00BF08DD03082DE9F74303690446DB6888468B42914620
S3250800058025D3067D134D3601AB19477D586818B10022597B01F0F8F8206901F033FB390171
S325080005A06A18127BAB19CDF804901B7B695800932069AB5901F00FFC20694246002101F06B
S325080005C031FC206903B0BDE8F04301F041BB03B0BDE8F08300D60308044B02791B789A42FA
S325080005E002BF034B1B681860704700BF681100206C110020002310B50446036072B6094B26
S3250800060019311970084B1860084800F0BFFF62B6236823B9064A4421064802F035FD204624
S3250800062010BD00BF681100206C110020D905000824DD030836DD0308002203681B685B016E
S3250800064003F184431A607047012203681B685B0103F184431A607047C9B2006801F094B827
S325080006600368C9B2186801F18041C36A01399BB2934228BF1346343040F821307047C9B26B
S32508000680006800F0E7BFC9B2006801F061B8012203681B685B0103F18443C3F88022704725
S325080006A008B501211048FFF7A5FF02210F48FFF7A1FF03210E48FFF79DFF04210D48FFF7CF
S325080006C099FF05210C48FFF795FF06210B48FFF791FF07210A48FFF78DFFBDE8084008215E
S325080006E00848FFF787BF00BF481100204C1100205011002054110020581100205C1100208F
S325080007006011002064110020F8B506460C4615468F18A74206D0336814F8011B1B683046DD
S325080007209847F6E72846F8BD70B505460C46084649B135F089FF2B68024621462846BDE8C0
S3250800074070409B68184770BD0368C9B21B68184703685B68184738B50D210546FFF7F4FFA8
S325080007600A2104462846FFF7EFFF204438BD38B50546FFF7EDFF04462846FFF7ECFF204434
S3250800078038BD2DE970439046994690B058EA090306469DF8585007D13021FFF7D5FF0125A8
S325080007A0284610B0BDE870830024404649462A46002329F05DFF8046894601340DEB04035B
S325080007C003F8012C58EA0903EFD10025013C1DF804103046092994BF3031373149B2FFF795
S325080007E0B3FF0544002CF1D1DAE72DE9F0411D46002A75F1000307461446069E05DA2D218C
S32508000800FFF7A2FF644265EB4505F6B2069622462B463846BDE8F041FFF7B3BF07B5CB177C
S3250800082000920A46FFF7E1FF03B05DF804FB38B50546FFF7F3FF04462846FFF78CFF20442E
S3250800084038BD07B5CB1700920A46FFF7CEFF03B05DF804FB37B5CB1700920A460546FFF75A
S32508000860C4FF04462846FFF776FF204403B030BD07B5D2B200920023CAB2FFF782FF03B0E5
S325080008805DF804FB07B5D2B2009200230A46FFF778FF03B05DF804FB07B5D2B20092002348
S325080008A00A46FFF76EFF03B05DF804FB37B5D2B2009200230A460546FFF763FF04462846A0
S325080008C0FFF749FF204403B030BD0000000000002DE9F34717461E4682460022002338462C
S325080008E0314629F013FB9DF828504FF00104F8B143A3D3E900233846314629F0FDFA00B9CF
S325080009000446E4B20022002338463146C4B129F0DFFA18B12D215046FFF716FF04463C49C1
S325080009205046FFF715FF0444204602B0BDE8F08735A3D3E900233846314629F0D3FADEE736
S3250800094029F0C6FA30B12D215046FFF7FDFE044606F100464FF0000800202E495FFA88F3C1
S325080009609D4206D900222C4B29F06AF908F10108F4E73A46334628F083FE06460F4629F06D
S325080009808FFE0A230246009380460B4650468946FFF72BFF0444002DC6D04046494628F0E0
S325080009A0F7FF02460B463046394628F067FE06460F4650461949FFF7CBFE0444013DEDB2AB
S325080009C0FF2DB1D0144B00223046394629F00EF80F46064629F0A4FA0A22014680465046A0
S325080009E0FFF71CFF0444404628F096FF02460B463046394628F042FE06460F46DEE700BF52
S32508000A00800350726C92DF43800350726C92DFC39FDD03080000E03F000024400F23040836
S32508000A209DF800100091FFF753BF37B59DF8181005460091FFF74CFF04462846FFF78BFE6D
S32508000A40204403B030BD000030B504460D4687B0064901A835F0E4FB22462B4601A90A98AA
S32508000A6035F0DEFB0A9807B030BD00BFAEDD0308704710B50446007900F0EEFC2079BDE878
S32508000A80104000F001BD026841F48011936823F46023194391607047002330B51C461D46B4
S32508000AA003EB4302072B01FA02F203F10103D8BF15430A2B44EA0204F2D10368DD600368AE
S32508000AC01C6130BD70B5144C23681B681D68A90707D51A6822F002021A6023689B6803B1A6
S32508000AE098476A0709D523681A68136823F00403136023681B6903B19847EB070BD52368A6
S32508000B001A68136823F0010313602368DB6813B1BDE87040184770BD1C00002070B5144C0C
S32508000B2023681B681D68A90707D51A6822F002021A6023689B6803B198476A0709D523687B
S32508000B401A68136823F00403136023681B6903B19847EB070BD523681A68136823F00103EA
S32508000B6013602368DB6813B1BDE87040184770BD24000020012203685B0103F1844303F5A0
S32508000B808673191F1A6018680028FCD143F8042C0B68002BFCD170470146042000F08EBCF5
S32508000BA010B50446054B1868A047054B1868A047044B18682346BDE8104018471C000020E2
S32508000BC0200000202400002010B50446FFF751FF20464FF46021FFF756FF012223682046A5
S32508000BE05B0103F18443C3F8502123685B0103F18443C3F80021BDE81040FFF7BBBF007948
S32508000C0000F02ABC70B5142401394C430368054608331B591646DB0704D5074ADC210748B1
S32508000C2002F032FA2B6808331A5922F4405242EA06321A5170BD00BFB7DD0308DDDD030880
S32508000C4070B5142401394C430368054608331B591646DB0704D5054AEA21054802F014FA3D
S32508000C602968083121444E6070BD00BFB7DD0308DDDD030800EBC10340F8312093F9043041
S32508000C80002B08DB0122591103F01F0302FA03F3014A42F82130704700E100E014220368B5
S32508000CA0013902FB01310123490101F18441C1F80031704714220368013902FB01310023CA
S32508000CC0490101F18441C1F8003170472DE9F04114251C4690464B1E5D430668FFF7EAFF56
S32508000CE09DF81C30240244EA8324089B08361C43069B77197451FB60C7F80880BDE8F0811C
S32508000D0010B5044B1C68A3681BB19847012223685A6010BD6000002010B5044B1C6823699E
S32508000D201BB19847102223685A6010BD6000002010B5054B1C68A36923B198474FF48072A9
S32508000D4023685A6010BD00BF6000002010B5054B1C68236A23B198474FF4805223685A6001
S32508000D6010BD00BF6000002010B5054B1C68A36A23B198474FF4803223685A6010BD00BF3A
S32508000D806000002010B5054B1C68236B23B198474FF4801223685A6010BD00BF60000020C5
S32508000DA010B5054B1C68A36B23B198474FF0807223685A6010BD00BF6000002010B5044B35
S32508000DC01C68A3681BB19847012223685A6010BD6400002010B5044B1C6823691BB1984743
S32508000DE0102223685A6010BD6400002010B5054B1C68A36923B198474FF4807223685A604B
S32508000E0010BD00BF6400002038B5104C636CD8070BD52368D90408D50D4B1D682B6A23B152
S32508000E2098474FF480522B685A60A36DDA070BD52368DB0308D5064B1C68A36A23B19847B7
S32508000E404FF4803223685A6038BD00BF0004024064000020000000000000000000000000CC
S32508000E60012007E0022005E0032003E0042001E00520FFE70D4A0121116072B60C4A0021B6
S32508000E801160074902B4084902B486B005498E46704700BFAFF30080AFF30080AFF3008092
S32508000EA000000061F9FFFFFF7530000814ED00E010E000E008B5054A136833B1506898476D
S32508000EC00122034B5A6100BF00BF08BD701100200004014008B5054A936833B1D0689847AD
S32508000EE00222034B5A6100BF00BF08BD701100200004014008B5054A136933B1506998478A
S32508000F000422034B5A6100BF00BF08BD701100200004014008B5054A936933B1D069984767
S32508000F200822034B5A6100BF00BF08BD701100200004014008B5054A136A33B1506A984741
S32508000F401022034B5A6100BF00BF08BD70110020000401402DE9F041002705240C4DD5F862
S32508000F6014800126A64018EA060F08D0094BE10053F834201AB10B4458689047374301349F
S32508000F800A2CEED16F6100BF00BFBDE8F08100BF00040140701100202DE9F04100270A24A9
S32508000FA00C4DD5F814800126A64018EA060F08D0094BE10053F834201AB10B4458689047E8
S32508000FC037430134102CEED16F6100BF00BFBDE8F08100BF0004014070110020034A136888
S32508000FE023F0070318431060704700BF0020024010B50446007900F02FFA2079BDE81040F4
S3250800100000F042BA08B50B48FFF7F2FF0A48FFF7EFFF0A48FFF7ECFF0948FFF7E9FF0948F6
S32508001020FFF7E6FF0848FFF7E3FFBDE808400748FFF7DEBFD8000020E0000020E8000020D0
S32508001040F0000020F8000020000100200801002070B50F250368CE0801F00700840053F8AF
S325080010602600092A05FA04F520EA050514BF10460820A0402843082A43F8260007D10120D5
S32508001080DA6800FA01F122EA0101D96070BD092AFCD10122D86802FA01F10143F5E708B572
S325080010A0032000F0D9F9BDE80840032000F0ECB9064B0028B7BF9A695A6820F00040104341
S325080010C0AABF104398615860704700BF0000014003681A6812F4985FFBD11A6842F480727E
S325080010E01A60704703681A6812F4985FFBD11A6842F400721A600268136813F4985FFBD1A8
S325080011007047000070B502684668516992695D4AB5781268CB07044605F00105C26014D5A8
S325080011200023F38000F0E2F82268536843F48063536025B12268136843F4806313600021A6
S325080011403388226845EA4303136111F00A0F10D0B388002D58D0012B0AD122682046136857
S3250800116023F480631360A38B012B4AD9FFF7B0FF002101F08402802A16D1A58B002D5CD020
S32508001180F388B1685A1CF2802268CB5C1361F288B3889A4207D12268536823F48063536045
S325080011A0A38B013BA383002101F08402842A0DD1A18B2046002947D0FFF78AFF22685369D6
S325080011C0D907FCD5002163680C3363604B0654D52368B2681969F388581CF080D154B38802
S325080011E0F288591E8A423ED122682046136823F480631360A38B022B31D9BDE87040FFF78D
S3250800120067BFFFF76FFFB3E7012B08D9F388B1685A1CF2802268CB5C13612946A9E7002BC4
S32508001220FBD12046FFF75EFF2268536823F400735360022384F823309AE7134A40F28511FF
S32508001240124801F021FFAEE7FFF74CFF2268536823F400735360022384F82330B6E7BDE887
S325080012607040FFF73FBF9A4207D1A38B013B9BB2A3831BB9022384F8233070BD63680C332C
S325080012806360FAE7CC4600205F21040875DE030808B50268536903F4706383600023536119
S325080012A002689361FFF71EFF0268536823F4E0635360FF2380F8233008BD00000148FFF78C
S325080012C021BF00BF100100200148FFF71BBF00BF340100200148FFF7DBBF00BF100100203A
S325080012E00148FFF7D5BF00BF3401002010B50446002190F9210000F00FF894F92200002158
S32508001300BDE8104000F008B84AF6AA22014B1A60704700BF003000400028A8BF00F1604042
S325080013204FEA0111B8BF054BC9B2B5BF00F00F0000F56140195480F80013704714ED00E079
S3250800134010B5002421F0604121F07F01064A0143916060B20F210134FFF7DEFF3C2CF8D153
S32508001360F02382F8233010BD00ED00E00449054BCA6802F4E0621343CB60BFF34F8FFEE7E8
S3250800138000ED00E00400FA05014B13F810007047AFDF0308064B5A6822F0030202435A608F
S325080013A080005A6802F00C028242FAD1704700BF00100240030AC2B2012003F1804303F535
S325080013C00433196890400843186070470121030A03F1804303F504331A68C0B201FA00F009
S325080013E022EA000018607047030A03F1804303F504331A680123C0B203FA00F0104214BF87
S32508001400184600207047030A03F1804303F504331A680223C0B203FA00F010407047000089
S3250800142038B54368054618201C68FFF7DDFF20B1064A8321064801F027FE064A2968536868
S3250800144023F474130B432343536038BD93DF03082ADF03080010024010B50446FFF794FF09
S32508001460074B53F82020074800EB4400437803EBC20301229B0003F184431A6010BD00BF16
S3250800148058010020AFDF030810B50446FFF77CFF084B53F82020084800EB4400437803EBA6
S325080014A0C20301229B0003F184431A6000221A6010BD00BF70010020AFDF030810B5054A00
S325080014C0054C536854F8200023EA00030B43536010BD00BF00100240DCDE030810B50446C3
S325080014E0FFF752FF074B53F82020074800EB4400437803EBC20300229B0003F184431A60DC
S3250800150010BD00BF64010020AFDF0308FEE700000722024B58601A60704700BF10E000E040
S32508001520044A136801331360034B1B6803B11847704700BFCC460020F011002011F0010F6F
S3250800154070B501F1FF340DBF082500256FF0FF016FF47F410068C4F34004183050F824601C
S3250800156013433140AB400B4340F8243070BD02684B1E02F1404220329B0003EBC203012299
S325080015809B0003F184431A607047000010B504460948A0470948A0470948A0470948A047C7
S325080015A00948A0470948A0470948A0472346BDE810400848184700BF9C010020C401002007
S325080015C0E80100200C0200203002002054020020600200206C02002010B504460079FFF770
S325080015E03BFF2079BDE81040FFF74EBF0023026813600268D3604279012A9CBF0268136255
S325080016007047000038B54B1E032B0C46057905D90E4A40F205110E4801F036FD1E2D10D985
S32508001620212D0ED0202D0ED9222D01D0252D04D1022C8CBF0020012038BD631E5842584192
S32508001640FAE70120F8E70020F6E700BF0BE003082CE003088B1C10B440F82320012342790D
S325080016608B40DB43F2B1012A41F65F6218BF01221340012204682361036803F140430C332C
S3250800168001EBC3039B0003F184431A6042790379002A2FD1072926D8DFE801F0071616162A
S325080016A0161B1B2041F6FF62E2E71A2B0CBF19232C230122590903F01F0302FA03F3214ABD
S325080016C042F8213010BC70471A2B0CBF1B232E23EFE71A2B0CBF1A232D23EAE71A2B0CBFFB
S325080016E018232B23E5E74FF4CA71174A174810BC01F0CABC1B3B0C2B1CD8DFE803F01F07A5
S3250800170021090B0D1B0F1113151719001D23D0E73223CEE73623CCE73723CAE71823C8E7E4
S325080017201923C6E71A23C4E72B23C2E72C23C0E72D23BEE7044A4FF4E271D7E71C23B8E768
S325080017401E23B6E700E100E05F2104082CE003080022036803F140430C3301EBC3039B00A9
S3250800176003F1844302311A6040F82120704738B504460D4613460022FFF7E0FE2946204615
S32508001780BDE83840FFF7F3BEF8B54D1EEBB2032B04460E46174604D92B4AD9212B4801F0E9
S325080017A073FC6379022B04D1294ADC21274801F06BFC6379022B16D0042F14D8DFE807F0CB
S325080017C003142B2E3C0031462046FFF7C1FF2368AD0003F14043203305EBC3050023AD0032
S325080017E005F184452B60F8BD0022236803F140430C3306EBC3039B0003F184431A600823C7
S32508001800602231462046FFF799FE31462046BDE8F840FFF7ACBE00231022F2E74FF2F11242
S3250800182023689A61032223689A60012223685B0103F184431A60D6E731462046BDE8F840B4
S325080018400122FFF794BF00BF94E003082CE00308B0E0030810B5074A1468E36821690B406C
S325080018601B0606D5536A23B19847236923F08003236110BD9C01002010B5074A1468E368E1
S3250800188021690B40DB0706D5936823B19847236923F00103236110BD9C010020F8B50C4D43
S325080018A02F68FE683B691E4016F0400403D02C6A0CB1A0474024B30604D5EB6913B19847D7
S325080018C044F020043B6923EA04043C61F8BD00BF9C010020F8B5134D2F68FE683B691E400F
S325080018E016F0100403D0AC690CB1A0471024310704D56B6913B1984744F00804720704D5E6
S325080019002B6913B1984744F00404B30704D5EB6813B1984744F002043B6923EA04043C612D
S32508001920F8BD00BF9C010020F8B51A4D2F68FE683B691E4016F0400403D02C6A0CB1A047FE
S325080019404024F30604D5AB6913B1984744F01004300704D56B6913B1984744F00804710705
S3250800196004D52B6913B1984744F00404B20704D5EB6813B1984744F00204F30704D5AB6865
S3250800198013B1984744F001043B6923EA04043C61F8BD00BFC4010020F8B51A4D2F68FE689D
S325080019A03B691E4016F0400403D02C6A0CB1A0474024F30604D5AB6913B1984744F010048B
S325080019C0300704D56B6913B1984744F00804710704D52B6913B1984744F00404B20704D5DC
S325080019E0EB6813B1984744F00204F30704D5AB6813B1984744F001043B6923EA04043C6191
S32508001A00F8BD00BFE8010020F8B51A4D2F68FE683B691E4016F0400403D02C6A0CB1A047D1
S32508001A204024F30604D5AB6913B1984744F01004300704D56B6913B1984744F00804710724
S32508001A4004D52B6913B1984744F00404B20704D5EB6813B1984744F00204F30704D5AB6884
S32508001A6013B1984744F001043B6923EA04043C61F8BD00BF0C020020F8B51A4D2F68FE6873
S32508001A803B691E4016F0400403D02C6A0CB1A0474024F30604D5AB6913B1984744F01004AA
S32508001AA0300704D56B6913B1984744F00804710704D52B6913B1984744F00404B20704D5FB
S32508001AC0EB6813B1984744F00204F30704D5AB6813B1984744F001043B6923EA04043C61B0
S32508001AE0F8BD00BF3002002010B5074A1468E36821690B40DB0706D5936823B19847236969
S32508001B0023F00103236110BD5402002010B5074A1468E36821690B40DB0706D5936823B19B
S32508001B209847236923F00103236110BD6002002010B5074A1468E36821690B401B0606D594
S32508001B40536A23B19847236923F08003236110BD6C02002010B5074A1468E36821690B4054
S32508001B60DB0706D5936823B19847236923F00103236110BD6C020020F8B50C4D2F68FE6867
S32508001B803B691E4016F0400403D02C6A0CB1A0474024B30604D5EB6913B1984744F0200499
S32508001BA03B6923EA04043C61F8BD00BF6C020020F8B5134D2F68FE683B691E4016F0100499
S32508001BC003D0AC690CB1A0471024310704D56B6913B1984744F00804720704D52B6913B1C5
S32508001BE0984744F00404B30704D5EB6813B1984744F002043B6923EA04043C61F8BD00BF2F
S32508001C006C02002000223F2110B50446436810309A801860DA801981A3689A80DA8004F1B2
S32508001C20500219811A6094F89000FFF715FC94F99130002B08DB0122591103F01F0302FA13
S32508001C4003F3024A42F8213010BD00BF00E100E00368DA6842F02C02DA60DA6842F400524B
S32508001C60DA60704710B5036881688C88CA8892B2A242FAD1DA68910402D51A685206F9D59D
S32508001C80DA6822F40052DA60426893889BB2D380826893889BB2D38010BDF0B50B46064639
S32508001CA00468B568581AAF88ED88ADB2BD4204D125682D0601D5824210D8E36823F0800319
S32508001CC0E3609042B3680DD39A88DB889BB293421EBFE36843F08003E360F0BD13F8010B5A
S32508001CE06060DEE7DD889F880135BD42ECD0DF881D89ADB2BD4203D19D88ADB2002DE3D031
S32508001D00DD8811F800C01F68ADB207F805C0DF881D890130ADB2BD420FBF0025DD880135B3
S32508001D20ADB2DD80CDE77FB5064600240A23B1FBF3F203FB1213013401AD2819303300F821
S32508001D40013C1146002AF1D114F1FF3401D204B070BD2B5D8DF8033001220DF1030130462E
S32508001D60FFF79BFF0028F7D0EEE703468288016892B2885C99881A89C0B292B28A420FBF09
S32508001D8000229A88013292B29A80704738B5C38882880133934204460D4607D0C288038914
S32508001DA09BB2934214D183889BB28BB92046FFF7DCFFE38822689BB2D554E28823899BB26D
S32508001DC093420FBF0023E38801339BB2E38038BD4FF0FF30EDE770B51E4605460846114630
S32508001DE00422059CFFF734F90B229DF810103046FFF72EF929686302CA6803F4F05322F4FE
S32508001E00F0521204120C1343CB602A682402136904F4405423F440531B041B0C1C43146139
S32508001E2070BD000070B5064615460C4641B900F08FF8044620B90D4AAE210D4801F024F92C
S32508001E4019226243AD006421B2FBF5F2B2FBF1F001FB10231B013233B3FBF1F303F00F03F9
S32508001E60346843EA00139BB2A36070BDC9E00308D5E0030810B50446084B1868A047084B6B
S32508001E801868A047074B1868A047074B1868A047064B18682346BDE8104018479C0200200F
S32508001EA0A0020020A4020020940200209802002010B5104CE368980607D52368990604D533
S32508001EC061680D48C9B2FFF761FFE3681A060BD523681B0608D509488288C3889BB2934269
S32508001EE003D0FFF742FF606010BDE36823F08003E360F9E7004C0040F41100200012002056
S32508001F0010B5104CE368980607D52368990604D561680D48C9B2FFF739FFE3681A060BD5B8
S32508001F2023681B0608D509488288C3889BB2934203D0FFF71AFF606010BDE36823F08003F2
S32508001F40E360F9E7005000400C1200201812002008B590F89000FFF717FA20B10128034817
S32508001F6018BF002008BD0248FCE700BF00A24A040051250230B548F28005094C226822F4AA
S32508001F80804222F070022A4342402260236823F4E04323F040032B434B40236030BD00BF39
S32508001FA0005C0040284B072818BF18701A78052A48D8DFE802F003131E232B364FF6FB7173
S32508001FC0224A106C014011644FF43F41116406221A701F4B1B685A7B1A7370474FF6FB71B4
S32508001FE01A4A106C014011644FF43F411164042202E002225A7003221A7006E05A78013A6D
S32508002000D2B25A705A78002AF1D070470F490A6C92B242F010020A6405221A700A225A7085
S3250800202070475A78013AD2B25A705A78002AECD14FF6EF720549086C02400A64044A1268E7
S32508002040517B11730622D7E7D4460020005C00408C0500202DE9F041694D6A4A2B68546CB1
S325080020601B68A4B223405E0506D56FF480635364654B1B685B6898472A68136823409804FA
S3250800208042BF6FF400515F4B596413682340D90406D56FF4C0525B4B00205A64FFF782FF10
S325080020A02B681A68224012050FD556490A6C92B242F0080042F00C0208640A641A7B5A7391
S325080020C003221A736FF4C0524A641A682240970542BF6FF400714B4A51641B682340DE05B5
S325080020E006D56FF48072474B07205A64FFF75AFF2B681B681C40240403D5424C676C3B04CA
S3250800210001D4BDE8F0816FF4004317F00F0663644CD148F68003D4F8008018EA030FECD043
S325080021201FFA88F3394D3A4E03F440524FF4005003F03003202133802A80FFF71BFFF80601
S3250800214008F0800317D42BB9324A4FF4A271324800F09AFF2B4A136823F4E14323F07003A1
S325080021601B041B0C136000F06BFE31882888BDE8F041FFF7FFBE43B1236823F4E14323F080
S3250800218070031B041B0C2360EDE7236818F4006F23F070034FEA03534FEA1353236002D012
S325080021A000F06CFCE1E700F0C9FDDEE7B40004F1804404F5B844276839040DD5236823F0C8
S325080021C070031B051B0D23602A6806F180439268013B52F8233098473A068ED5236806F190
S325080021E0804623F4E14323F070031B041B0C23602B68013E5B6853F8263098477DE700BF49
S325080022008C050020005C0040DC460020D0460020D246002040E1030854E10308800000F1D6
S32508002220804000F5B840036823F4804323F0700343F4004343F08003594001607047000037
S3250800224018B90722024B1B681A820248704700BF04470020FC0500200022012110B5104B5A
S325080022601B689A720F4B19640F4908680260086804681C644FF4E0545A64046008680468EF
S325080022801C644FF43F445A6404600868006818644FF48010054B18600B681A7310BD00BF4D
S325080022A004470020005C00408C05002000E100E013B5104B1A68137803F07F03212B16D1BF
S325080022C0022808D0222801D0022405E093780A4A03F0030313700024084B1B6823B102A974
S325080022E001F8010D02209847204602B010BD0224FAE700BF04470020701200206C12002072
S3250800230021B901288CBF02200020704702207047054B1B689B78032B04D8044901EBC301A2
S3250800232000F07EBB0020704704470020E4050020014900F075BB00BFA0050020014900F0F3
S325080023406FBB00BFA805002037B5114C2268127802F07F02212A02D0022003B030BDA0F179
S325080023602003012B0B4B0C4D1B6888BF002523B102A901F8010D02209847002DECD0236867
S3250800238000249D615C822046A8472046E5E700BF044700206C1200204122000870B5204BE5
S325080023A0204C214922681B689B1A13F0FF0305D10A78013A52B20A70FAB170BD01200870F0
S325080023C00020402B28BF40230646184D184910F0010F895C00F10100C9B21CBF46EA012179
S325080023E0296002F101020CBF8EB204358342D2B2ECD1D90748BF2E6022600E4A0E49106DE3
S3250800240040000B50536823F4E04323F0400343F4004343F0800383F030035360CDE700BFCC
S3250800242080120020841200207C1200208061004088130020005C00401460004070B5104ACD
S32508002440104C136824681C1BE443E4B28C4228BF0C4664B100218DB2AC4201F1010108D8D9
S325080024601360094B1B781B0601D5FFF797FF204670BD465D054DEE540133DBB2EBE700BF55
S3250800248080120020841200207C120020881300202DE9F04700254FF0C00948F68F1648F2C6
S325080024A080074FF0400A434B434C1B68DFF838819D7283F80990256523682846334043F47E
S325080024C000732360236803EA08033B4383F010032360226D394B520043F802A08022236D7A
S325080024E05B0003F1804303F5C0431A60236823F4E24323F070031B041B0C2360304B1B6833
S3250800250093F82C1000F0BAF84FF440512846FFF785FEA3682946334043F4C063A360226DB0
S32508002520284B520013444FF480721A60A268022002EA08023A4382F02002A260FFF76EFE2B
S32508002540E36851463340E360226D1F4B520013444FF4887203201A6000F090F84FF440510D
S325080025600320FFF75BFE636829461E406660226D164B520043F802906368012003EA08038A
S325080025803B4383F020036360FFF748FE0122104B28461B681A7300F033FCFF220D4B1D6009
S325080025A00D4B1D600D4B1D600D4B1D600D4B1A70BDE8F08704470020005C004008600040E1
S325080025C0DC4600202060004038600040106000408C050020741200207812002080120020B0
S325080025E0841200207C120020BF8FFFFF09B1FFF725BF084670470000034B1868034B1B68E5
S32508002600C01AC0B2704700BF741200207812002010B50A4B1A680A4B1B689B1ADBB2994209
S3250800262028BF19464318984201D1084610BD054CA45C013200F8014BD2B2F4E77812002053
S32508002640741200208812002010B5FFF7E1FF094A044613680344DBB21360074A1268D31A5A
S32508002660DBB2402B04D84FF440510320FFF7D6FD204610BD78120020741200200D4B0E4A85
S325080026801B6D3E2903EBC0004FEA400002440AD94B09C80604BF03F1FF339BB29B0243F4C1
S325080026A00043136070474B08C90748BF01339B02F7E700BF005C00400C60004010B5064CA8
S325080026C018B9012223681A8210BD044B1B681B68984720680A30F7E704470020004700205E
S325080026E010B5064C18B9012223681A8210BD044B1B689B68984720680C30F7E7044700200C
S325080027000047002010B51E4B1C68002310B90223238210BD1B4803802178024611F07F01C7
S3250800272012D1617A8C0644BF02230370037848064CBF23F0010343F001031370124B1B681B
S325080027401B6998470F48E4E70129E2D0022915D1217901F00F039B0003F1804303F5B84317
S3250800276009061B6805D503F03003102BE6D10123E3E703F44053B3F5805FF7E71846C8E7DD
S3250800278004470020D6460020004700202DE9F843234FDFF8A0803D682C8AD4B92E7A042EA1
S325080027A017D120490B78012B0ED11F4B1A681F4B92B213445B001C6030230C70A8F80030C5
S325080027C03B681E72BDE8F88310230726A8F80030F6E7AB8A9C4294BF042602269C4228BF0E
S325080027E01C46AB69204698478146002000F0B4FB22460146484600F052FB2146002000F099
S32508002800C7FB2B8A4FF440521B1B2B826B8A1C443023A8F80030064B6C821A80D0E700BFB4
S325080028200447002088140020505C004002300020D0460020D246002010B50A4B0A491B68C7
S3250800284049789A7891420AD3D97841B99C8834B99A72064B1B685B689847204610BD0220B4
S32508002860FCE700BF04470020E00500200047002038B50F4A0F4D12682B6892699978187985
S3250800288090472B6804469A7A7AB170B95A7962B9DB7853B9084B1B68DB6898472B681A79A3
S325080028A0DA729A781A73204638BD0224FBE700BFDC460020044700200047002038B52B4B86
S325080028C01B68187810F07F0004D15A7A22F020025A7238BD022847D15A88002AF9D15A79CF
S325080028E0002AF6D11979224D21F08000840004F1804404F5B844226849B22D780029B4BF4F
S3250800290002F0300202F4405285422DD962B39B7A53B30029236811DA03F03003102B07D128
S32508002920C4B2204600F004FB3021204600F0D8FA104B1B685B6998470020CAE703F4405369
S32508002940B3F5805FF4D10C4D58B90C4B93F82C1000F02CFB23682B409BB283F440532360AE
S32508002960E6E700F0D2FAF5E70220B2E704470020E0050020004700208FBFFFFFB005002031
S3250800298038B51B4B1B4D18682D78017921F08004A30003F1804303F5B8431A6849B2002947
S325080029A0B4BF02F0300202F44052A5421DD94488DCB9D2B1827AC2B11A680029B5BF22F485
S325080029C0E04222F4804222F0400222F07002B5BF92B292B282F0100282F480521A60064B84
S325080029E01B689B699847002038BD0220FCE700BF04470020E00500200047002008B5064BA5
S32508002A001A68537A43F020035372044B1B68DB699847002008BD00BF0447002000470020D3
S32508002A2010B5054B1C68628A18B98B889B1A238210BD08681044FBE70447002008B50B4BD4
S32508002A40002093F82C1000F0B1FA094B1B68187A082806D14FF48052064B1A801022064BF3
S32508002A601A80A0F109035842584108BDB005002004470020D0460020D246002073B5964C61
S32508002A80964E216832680B7A092B16D0944B92B213445B001B885B0003F1804303F5C043FD
S32508002AA01A780A705978226851709988226851801989226891809B89D380012223681A7276
S32508002AC0DA885D78002A64D11A7812F07F024DD1092D03D1FFF7B0FE40BB16E0052D20D15D
S32508002AE093F90220002A07DA08232268137202B0BDE87040FFF7A2BFDA78002AF4D19A8814
S32508002B00002AF1D19B7A002BEED13268754B92B2134400225B001A603022734B1A800623FD
S32508002B20E3E7032D14D19A78012A08D06F4B28461B685B699847032828D10923D5E79A8817
S32508002B40002AF3D15B7A9A06F0D5FFF757FFC3E7012DEBD19A78012AE8D19A88002AE5D167
S32508002B605B7A9B06E2D5FFF7A9FEB5E7012A04D10B2DDBD1FFF77CFEAEE7022AD6D1012DF7
S32508002B80F1D0032DD2D1FFF7FBFEA5E70028ABD1BBE7062D12D11A7855065AD1DB78534AB4
S32508002BA0012B126802D1D369DBB952E0022B01D1136AF9E7032B4CD1536AF5E7002D54D1FA
S32508002BC05988002945D15A6822F0FF02B2F5003F3FD11A7812F07F0216D19B88002B38D1A9
S32508002BE0434B00252268284655829361984728464FF6FF7123681A8A8A4233D0022801D056
S32508002C00002A55D108222EE0012A0AD1374A1879126892699047E0B923689B7A002BDFD1A6
S32508002C2017E0022A15D11A7902F00F018B00100603F180432F4803F5B8431B6800784CBF20
S32508002C4003F0300303F44053884202D912F0700FE4D0264B22681B6850781B699847032808
S32508002C60C6D1236809221A7241E7082D04D11B785B06EED1204BB4E70A2DEAD11A7802F00C
S32508002C807F02012AE5D19A7A002AE2D059880029DFD15A6822F0FF02B2F5803FD9D1134AD8
S32508002CA018791268926990470028D2D1134B98E793F90010002936DAD9880C4C01910198C8
S32508002CC0246882421CD9019A1A8294F82C209A82FFF75CFD0BE700BF04470020505C00401F
S32508002CE00430002002300020D2460020DC46002005270008E0050020BD260008E126000873
S32508002D008A42E2D294F82C00824203D20021094A1170DAE792FBF0F100FB1122002AD4D1B3
S32508002D20044A0121F4E703221A724FF44052024B1A80DCE688140020D0460020F8B52A4EF4
S32508002D403468237A032B01D0052B44D1A369B3B1258AA5B1A28A954228BF154628469847E1
S32508002D60238A07465B1B2382638A00202B44638200F000F92A460146384600F09FF8238A7D
S32508002D8053B100214FF44052184B08461A8000F0FFF83022164B1A80228AA18A3368914267
S32508002DA009D803221A7233681B7A32681372BDE8F840FFF743BE0AB10522F3E706211972E2
S32508002DC00C4B19680C4B89B20B445B001A603022074B1A80E7E7072B03D1084B1B68DB682C
S32508002DE098470823E1E700BF04470020D0460020D2460020505C004002300020DC460020DB
S32508002E00002210B50C4B1C78A24204D30B4B40F08000186010BD02F1805303F5B8539B0068
S32508002E20196821F4E04121F070010904090C114319600132E8E700BFE00500204C5C0040AE
S32508002E4010B5134C23681A7A022A01D0042A09D1FFF79CFC23681B7A22681372BDE810406A
S32508002E60FFF7ECBD062A10D15A78052A09D11A78520606D19878FFF7C3FF064B1B681B6AD7
S32508002E809847054B1B689B6898470823E4E700BF0447002000470020DC460020704701F11E
S32508002EA00051013201F540515210490002B9704730F8023B013A21F8043BF7E7002310B51E
S32508002EC001F10051013201F54051521049009A4200D110BD51F8234020F813400133F6E79A
S32508002EE0800000F1804000F5B8400368CA0623F4E04323F040039BB248BF83F010038A0671
S32508002F0048BF83F0200303607047800000F1804000F5B84003685B0409D5036823F4E04381
S32508002F2023F070031B041B0C43F4804303607047800000F1804000F5B84003685B0609D5DB
S32508002F40036823F4E04323F070031B041B0C43F04003036070470000054B1B689BB203EB54
S32508002F60C00000F1005000F54050400000887047505C0040044B1B689BB203EBC000034B37
S32508002F8003445B0018887047505C004004300020044B1B689BB203EBC000034B03445B002D
S32508002FA019607047505C0040023000200D4B0E4A1B683E299BB203EBC00002444FEA42023D
S32508002FC00AD94B09C80604BF03F1FF339BB29B0243F40043136070474B08C90748BF013309
S32508002FE09B02F7E7505C00400630002013B504468DF8071001220DF107012046FEF74DFE89
S325080030000028F7D002B010BD38B505464C1E14F9011F01B938BDC9B22846FFF7E7FFF6E714
S3250800302008B5134B03221C6801212046FEF710F8002301211A46B2F5007F0CD072B1B3F5C7
S32508003040007F01D100230A449A420CD90225206805610133EFE74FF0FF31F0E7B3F5007F53
S325080030604FF00101EED020684FF40035F0E700BF4CDE030808B5034B0BB100F051F962B65F
S32508003080FFF7CEFF21330008F8B5144B06460D4617460BB300F064F904461149FFF7B4FFA3
S325080030A039462046FFF7B0FF0E492046FFF7ACFF31462046FFF7A8FF0B492046FFF7A4FF4D
S325080030C029462046FEF72FFE0A212046FFF78EFF0D212046FFF78AFFFFF7CCFF6133000867
S325080030E03DE2030853E2030854E2030808B5044B23B100F035F90349FFF786FFFFF7BAFFA3
S325080031006133000857E20308FDF7D0B808B501F00BFF01F0FBFFFCE732F0B4B96F2870B574
S325080031200E4612D8094B03EB00104568447B05B124B9074A2F210748FFF7A6FF2A6804F1E0
S3250800314080433432013B42F8236070BD00D603087CE203088EE2030838B50C46054607219B
S3250800316004EB042400F014F9A1B22846BDE83840FFF7D4BF0C234343013B18460138FDD869
S32508003180704708B1FFF7F6BF7047000010B5164C0B2294F88C12D4F88002FDF759FF94F8AB
S325080031A09C12D4F890020922FDF752FF94F8AC12D4F8A0020922FDF74BFF94F8BC12D4F83E
S325080031C0B0020922FDF744FF94F8CC12D4F8C0020B22FDF73DFF94F82C13D4F820030B2291
S325080031E0BDE81040FDF734BF00D6030808B51520FEF732F9BDE808401520FEF745B90000DD
S325080032000322034B14201B681A60FFF7B3BF00BF0406002010B5114B114C1A68536823F4D9
S32508003220C0531843506094F89C12D4F890020B22FDF70EFF94F8AC12D4F8A0020B22FDF7C3
S3250800324007FFD4F8B00294F8BC120B22FDF700FFBDE81040034B1878FFF793BF040600201D
S3250800326000D6030808060020044B1A68536883F480735360024B1878FFF783BF0406002049
S32508003280080600201449154B814228BF0146984294BF1423022310B5114C2370114BB3FBFC
S325080032A0F1F201FB1231023A00290CBF1146511CFFF7DAFF0C4BC9B21A682078536823F45D
S325080032C08F4323F07F0343F486430B435360BDE81040FFF756BF00BF005125023F420F00B1
S325080032E00806002000A24A040406002008B5FFF77DFFFFF785FFFFF749FF0448FFF7C2FF8E
S32508003300BDE80840C820FFF735BF00BF801A0600002203685B0103F18443C3F8002170474A
S325080033204FF0FF3310B50A4C0A48C4F88030C4F88430FEF72BF90848FDF732FC0748FEF7F6
S3250800334099FD4FF4002323604FF48013236010BD00E100E0ED15000811330008651C00081A
S3250800336010B5094B094C18680B220221FDF770FE2068FEF747FC20684FF416520021FEF796
S3250800338051FD206810BD00BF48DE0308A00200206F2838B542D8082927D8DFE801F02D30E7
S325080033A005171A1D05202300002404221C4B00011D18297B1858FDF74BFE686870B3697B55
S325080033C004B3BDE838400122FEF7DEB900242246ECE700240922E9E700240822E6E701249E
S325080033E00B22E3E701240F22E0E70E4A4C21BDE838400D48FFF748BE00240322D6E700244E
S325080034000722D3E702684B1E02F1404220329B0003EBC2039B0003F184431C6038BD00BF4D
S3250800342000D603085F210408EDE2030808B5124B1A88124B19680A441A60114B92B21978A4
S32508003440104B1868FDF70CF90F4A1388013B9BB213806BB90D490B7883F001030B700C4936
S32508003460096833B10B4B1B680B600B4B1B88138008BD0A4BF7E700BFC8140020B81400207A
S325080034802C060020CC140020B214002034060020AC140020C4140020B4140020C0140020D8
S325080034A010B51C4B1C4C1A881C4B206819680A441A601B4B92B21978FDF7D2F8194A138899
S325080034C0013B9BB213801BBB174BB3F90030002B0ADD16490B7883F001030B7014490968FA
S325080034E0A3B1144B1B680B60134B1B881380134A1368013B13605BB92068FDF79DF8BDE838
S3250800350010400F4B02211878FFF742BF0D4BE9E710BD00BFC8140020CC140020B8140020AD
S325080035202C060020B21400202E06002034060020AC140020C4140020B4140020BC140020E7
S3250800354032060020C01400202DE9F74F0C46504D504900B2288001EB00104F4B477B8946AC
S325080035601B784E4E4E49002F77D0002B76D1377043681B79193B0B700B784A49013B51F83F
S325080035802300494BDFF84CB11C800023DFF848A1DFF848810192CBF80000CAF80030C8F86B
S325080035A000305F46FDF748F8002C64D03F4B4048B3FBF4F3190C0131B3FBF1F301803D48FE
S325080035C0019A01803C4803808346002A50D04FF47A7152005443B4FBF1F4CAF8004028785A
S325080035E00721FFF7D5FE28780021FFF7D1FEB5F9003032491B0109EB030259F803303868B4
S325080036001B6810330B600123127B317893402C4A13602C4A1B041360BBF800300222C8F886
S325080036200030FDF719F8B8F8002031783868FDF717F8DAF80010244B244A3868002918BFCC
S325080036401A463178FDF71BF83868FDF720F8386803B0BDE8F04FFCF7F7BF3BB11C480078F8
S32508003660002B08BF08230870337085E70820F7E7CAF80020B3E73178DBF80000FDF703F8AB
S325080036800221287803B0BDE8F04FFFF781BE00BF3206002000D60308B01400202C0600205F
S325080036A0300600200C0600202E06002080A81201B2140020B4140020C8140020AC1400203B
S325080036C0C4140020C0140020A13400082D340008B1140020CC140020BC140020B8140020E9
S325080036E008B501211048FCF785FF02210F48FCF781FF03210E48FCF77DFF04210D48FCF7CB
S3250800370079FF05210C48FCF775FF06210B48FCF771FF07210A48FCF76DFFBDE80840082176
S325080037200848FCF767BF00BF8C1400209014002094140020981400209C140020A014002097
S32508003740A4140020A8140020FEF756BF07B501210DF10700FEF75CFF012814BF4FF0FF3000
S325080037609DF8070003B05DF804FB07B501210DF10700FEF769FF20B19DF8070003B05DF8E3
S3250800378004FB4FF0FF30F9E700214FF47A72C0E90112014A026070476CE3030870B5164683
S325080037A00D46B1B10C4B1B681B7B052B11D10B4B1B7843B10024A6420CD9311B2819FEF774
S325080037C015FF0444F7E72846BDE870401146FEF70DBF0024204670BD8C050020E01400204A
S325080037E007B502AB03F8011D01221946FFF7D6FF03B05DF804FB38B5054608460C4632F0EB
S3250800380023FF214602462846BDE83840FFF7C6BF70B50E4615460024AC4205D2291B301979
S32508003820FEF712FF0444F7E7204670BD13B50446FEF7E2FE30B101220DF107012046FFF76E
S32508003840E7FFF5E702B010BD4FF47A720021034BC3E90112024A1A60704700BFD01400207C
S325080038606CE303086F280DD8074B000119181B58097B1B689A6801238B40134214BF01202C
S32508003880002070470020704700D603086F2810B50ED8084B00011C181B58B1FA81F11A68AF
S325080038A00123207B49098340090103FA01F1116110BD00BF00D6030808B132F071BA704791
S325080038C010B5044628B132F073FA90FBF4F303FB1404204610BD884210B5044603DA081AD0
S325080038E0FFF7EEFF0444204610BD00000A4A0B4B11689B6800BF00BF12688A42F6D1482043
S32508003900C3F58C3303F5A073B3FBF0F34FF47A7000FB0230704700BFCC46002010E000E0B4
S3250800392038B50446FFF7E2FF05465CB1FDF7A0F8FFF7DCFF401BB0F57A7FF6D3013C05F5BD
S325080039407A75F5D138BD28B10C234343013B18460138FDD87047704710B50D490D4BCA6866
S325080039600D4C22F4E0621204120C1343CB60032294F83C13D4F83003FDF76AFBD4F830334C
S3250800398094F83C131A684FF480338B40136110BD00ED00E00003FA0500D60308704770479C
S325080039A001207047FFF7BCBF13B5104C204625F084FD2046042125F019FD204602220C49FB
S325080039C025F018FD002302220A4900932046A02325F076FD204625F069FD204625F058FD20
S325080039E0204602B0BDE8104025F059BDF814002088E30308E414002010B1012809D070474D
S32508003A000123054A32F81330044AC3F38903138070470023F5E700BFE4140020E2140020F2
S32508003A20044B03EB00135B6813B1C0B2FFF794BB704700BF00D60308FDF798BC08B5054841
S32508003A40FFF7A2FE044B05481968BDE8084025F0CBBC00BFE81400201C000020F8140020D9
S32508003A6003468288016892B2885C99881A89C0B292B28A420FBF00229A88013292B29A806B
S32508003A80704738B5C38882880133934204460D4607D0C28803899BB2934214D183889BB26D
S32508003AA08BB92046FFF7DCFFE38822689BB2D554E28823899BB293420FBF0023E38801334A
S32508003AC09BB2E38038BD4FF0FF30EDE770B5164B1A68164B95681C68DE68194616F0200F2D
S32508003AE019D0A00617D5A1070FD05B6832060BD5230609D5AA88EB880C4C9BB293420ED0D7
S32508003B002846FFF7ADFF606070BD59685068C9B2FFF7B7FFEAE7200748BF4B68E6E7E36830
S32508003B2023F08003E360EFE79C0200200038014070B5164B1A68164B95681C68DE68194602
S32508003B4016F0200F19D0A00617D5A1070FD05B6832060BD5230609D5AA88EB880C4C9BB2F4
S32508003B6093420ED02846FFF77BFF606070BD59685068C9B2FFF785FFEAE7200748BF4B6899
S32508003B80E6E7E36823F08003E360EFE7A00200200044004070B5164B1A68164B95681C6820
S32508003BA0DE68194616F0200F19D0A00617D5A1070FD05B6832060BD5230609D5AA88EB8894
S32508003BC00C4C9BB293420ED02846FFF749FF606070BD59685068C9B2FFF753FFEAE72007B2
S32508003BE048BF4B68E6E7E36823F08003E360EFE7A40200200048004038B51749174D184CD3
S32508003C000A23092209682846FCF7A2FC2C601549154D0323022209682846FCF799FC2C6045
S32508003C201249134D1B231A2209682846FCF790FC2C601049104D2B232A2209682846FCF735
S32508003C4087FC2C600D490E4D32232C2209682846FCF77EFC2C6038BD9C020020081500202B
S32508003C6094E30308A002002020150020A40200203815002094020020501500209802002075
S32508003C806815002010B50C46FDF77EFB90B10228094B88BF002300225B089C42D0B205D210
S32508003CA00132072A4FEA5303F7D11046034B0344187B10BD024BEEE700A24A0484540408FA
S32508003CC0005125022DE9F041034604466C302F4D00221D6001255A731D735A60C3E90722BB
S32508003CE024339842F3D124224B1E02FB03430229E366DFF8C080264E39D003293CD0A942A4
S32508003D003ED1244B1C60244B244F1B68216823611879FFF7B7FF3B680225A3610323637520
S32508003D20D8F80030A06063632575616A1879FFF7A9FF3B68E062E363052384F839300423BC
S32508003D4084F838303368A16CA3651879FFF79AFF134B00221B6820652366012384F85C3064
S32508003D60E36E84F85D50DA732046BDE8F081D8F8003063630B4BC5E73368A3650A4BC1E78A
S32508003D800A4A77210A48FFF77FF9BCE700093D0080010020F01500207801002060000020A1
S32508003DA064000020F4150020F81500205F210408B0E303087C01002002210148FFF782BFB1
S32508003DC0801500204FF4006070470000084B186803F178420749A2F5FE228850064A0433DF
S32508003DE09342F4D10022054B01201A70704700BF00F00708FC15002000F80708FC1D002018
S32508003E0070B5164D2C783CB325F020FC144825F0C5FB052805D025F025FC00232B702046BB
S32508003E2070BD104825F0BAFB0528F4D10C4E0E4A06F17843A3F5FE23D15A304625F0E0FB85
S32508003E40052804D0002425F00DFC2C70E7E7054B02369E42EBD1DEE70124E0E7FC1D002099
S32508003E6000F0070800F80708FC150020F8B505460024944206D0094E0F5D286826443754ED
S32508003E800134F6E70120064A1070A2B218461AF00DFA2B6800201C442C60F8BDFC150020C9
S32508003EA0FC1D002070B515469DF8102004465AB902680A491144AAB218461AF0F7F92268C9
S32508003EC000202A44226070BD0022AA42F3D0034E20681644305C88540132F6E7FC150020EA
S32508003EE0054B06481B68013805D05A6B1206FAD50120034A9A6370470406002041771B00BA
S32508003F00C500C0000022044B1B689A604FF48062DA60FFF7E5BF00BF040600200E4B1A6863
S32508003F200E4B013B09D0516B11F0450FF9D0536B13F0050303D00523936300207047116920
S32508003F40C9B28842F9D1064B0648936353691840B0FA80F0400970470406002041771B0084
S32508003F60C500C00008E0FFFD40F24742034B1B689860DA600720FFF7D1BF00BF0406002076
S32508003F8040F24D42034B1B689860DA600D20FFF7C5BF00BF0406002008B5074BD86800046C
S32508003FA0FFF7EEFF28B1054B1B685869C0F3432008BDFF20FCE700BF001E0020040600209F
S32508003FC040F25142034B1B689860DA601120FFF7A5BF00BF040600202DE9FF410446884629
S32508003FE0FFF7DAFF042855D13F4B9A69A24251D918F0030F4ED11B688027012B4FF0020324
S325080040003A4E3B4D3268CDE901373A444FF004012868CDF8008018BF6402FCF757FE3A465E
S3250800402004212868FCF70CFE4FF4805228680421036837465A60FCF731FE40F23A723368B9
S3250800404020469A632B4A5A624FF400729A629B22DA62FFF7B5FF2A46044650B93368264A9C
S3250800406004219A632868FCF725FE204604B0BDE8F081336840F23A31586B0842FAD01068B3
S3250800408040F23A22596B114206D01C4A04219A63FCF710FE0024E8E7194B1A6812F4204FC0
S325080040A0FAD01B6804211B0405D5FCF703FE3B68124A9A63EEE7FCF7FDFD3B685A6B12F467
S325080040C0001209D05C6B14F4001402D0D3F88020F8E70A4A9A63C8E740F23A21586B08424E
S325080040E006499963C1D0D5E7001E0020040600206400002000DD6D00C500C000FF07C00099
S325080041000004024070B505460E460424013C06D031462846FFF760FF0028F7D070BD204690
S32508004120FCE700004FF48B62034B1B689860DA601820FFF7F3BE00BF04060020F0B585B0B9
S3250800414004460F46FFF728FF04284FD12E4B9A69A2424BD9B80749D11B689021012B4FF04D
S3250800416002032A4D2A4E2A68CDE90131009702F180024FF00401306818BF6402FCF7A6FD08
S32508004180802204213068FCF75BFD4FF480523068042103685A60FCF781FD2046FFF7C2FFE2
S325080041A03246044630B904213068FCF783FD204605B0F0BD40F23A712B68996315495962C9
S325080041C04FF4007199629921D96240F23A31586B0842FAD004211068FCF76CFD40F23A2232
S325080041E02B68596B11420C4A9A6301D00024DEE70A4D2E68C8362B689E42F7D9FFF7CCFE0C
S325080042000428F8D1D3E700BF001E0020040600206400002000DD6D00FF07C000CC460020F4
S3250800422040F27742034B1B689860DA603720FFF775BE00BF040600200A4B0B481B680138B5
S325080042400ED05A6B12F0450FF9D05A6B12F0050F03D0052200209A6370470120034A9A637A
S32508004260704700BF0406002041771B00C500C0000022044B1B689A6040F2C242DA60FFF7E4
S32508004280DBBF00BF0406002040F2C942024B1B689860DA60FFF7D0BF0406002010B50C4688
S325080042A0FFF7BEFF48B140F24642044B1B689C60DA60BDE81040FFF7BFBF10BD0406002022
S325080042C008B5FFF7ADFF50B10022054B1B689A6040F26A42DA60BDE80840FFF7ADBF08BD55
S325080042E004060020094B0A481B6801380DD05A6B12F0450FF9D05A6B520703D50422002027
S325080043009A6370470120034A9A6370470406002041771B00C500C00010B504460020FFF712
S325080043207FFF68B140F26942064B44F000441B6844F480149C60DA60BDE81040FFF7D2BF31
S3250800434010BD00BF0406002010B5104B104A1B68013A01D1002010BD5C6B14F0450FF7D0BC
S325080043605A6B12F0050F02D005229A63F2E71A69D2B29042EED1074A9A635A6912F4604F27
S32508004380E8D15B6901201B0C0B60E4E70406002041771B00C500C0000022054B01461B6856
S325080043A003209A6040F24342DA60FFF7CDBF00BF040600200B4B0C481B68013810D05A6B6B
S325080043C012F0450FF9D05A6B510703D5042200209A6370475A6B0120520644BF40229A6321
S325080043E0704700BF0406002041771B004FF4D572034B1B689A604FF48962DA60FFF7DABFF0
S325080044000406002070B500254C4CC4E90655C4E90455C4E90255C4E90055FEF767FF2846A5
S32508004420474DFEF7F7FE2868FCF7E9FB04212868FCF740FC012204212868FCF7E3FBFFF706
S3250800444061FD10B90024204670BDFFF75BFD0028F8D0FFF7CBFF4FF480556060013DF1D09B
S325080044606368384E012B0CBF4FF080400020FFF753FF33685A69002AF0DA5B69C3F38073C0
S325080044802360FFF7F5FE0028DCD02F48FFF784FF0028D7D0E0680004FFF7F6FE0028D1D010
S325080044A0326893691B0DA3602368012B2AD19169264BD26903EA921343EA816303F5806357
S325080044C02361A3614FF400736361E068E3610004FFF74AFD0028B5D0E0680004FFF7F0FE22
S325080044E00028AFD0E06802210004FFF7D7FE04460028A7D04FF40060FEF78CFE1448FEF771
S32508004500C1FEA0E740F6FC719569D069D36901EA850141EA9071C3F3C2300423834001FB06
S32508004520033391690122C1F303418A406261520A23615343A3614FF40073C6E7001E00207A
S3250800454064000020040600200C1E002000FCFF0380A8120137B54B4C2068FCF750FB0521AD
S325080045602068FCF7A7FB012205212068FCF74AFB454B1D78002D40F0828001240A201C70A8
S32508004580FCF76AFF414B0B221B680E2118460093FCF75EFD0B220F210098FCF759FD0B229C
S325080045A029460098FCF754FD21460B220098FCF74FFD374B0B221B68072118460193FCF7F8
S325080045C047FD0B2208210198FCF742FD0B2209210198FCF73DFD0B220A210198FCF738FD32
S325080045E00B2201981146FCF733FD0B220C210198FCF72EFD0B220D210198FCF729FD0B2222
S325080046000E210198FCF724FD0B220F210198FCF71FFD0B2208210098FCF71AFD0B2209215C
S325080046200098FCF715FD0B220A210098FCF710FD184C0B2204210098FCF70AFD0B22052144
S325080046400098FCF705FD0B2294F87C13D4F87003FCF7FEFC0B2294F8BC13D4F8B003FCF751
S32508004660F7FC4FF0204341F211021A6040F60F7209485A60FCF71CFD084B094A1A6003B036
S3250800468030BD00BF64000020201E002050DE030854DE030800D6030800040080241E002041
S325080046A0FEFF0160024B1B685880BFF34F8F7047241E0020024B1B681880BFF34F8F70478E
S325080046C0241E002008B50146FFF7F4FF084B1A685388538850881B04528803F47F0343EA7B
S325080046E00163D2B20002134380B2184308BD00BF241E002008B50020FFF7DCFF0E4B1B686F
S32508004700588880B210B90420FFF7DCFF83B21BB14FF6FF72934202D1D320FFF7D3FF10F49D
S325080047207F4F07D110F0FF0F04D0BDE80840D320FFF7C8BF08BD00BF241E0020012330B597
S32508004740154685B040F48040124A019302901268114C0232009220680A460521FCF7B6FA07
S325080047602A4605212068FCF76BFA4FF480322068052103685A60FCF791FA20680268136802
S325080047801B0C13F00A0FFAD0052105B0BDE83040FCF790BA241E002064000020F0B50646FA
S325080047A00825802400201D4B26421A6D18BF4FF0000E17684FF0010208BF4FF0100E93F80F
S325080047C05C109C4602FA01F10904396193F87C101F6F02FA01F13F6801FA0EF13961196E93
S325080047E093F86C700968BA4089680A421A6D18BF2043116893F85C200123013D03FA02F208
S325080048000A6124FA03F4CED1DCF850209CF85C1012688B401B041361F0BD00BF00D6030802
S32508004820FFF7BCBFF7B5284C0025D4F87021074611684FF4803294F87C0182400A613846E8
S32508004840FFF7EEFF0020FFF7A9FF06460020FFF7A5FF001140EA06102DF815000135032DB2
S32508004860EDD1D4F8703194F87C111A6801238B401361BDF80020BDF80230BDF804109A42A0
S325080048808CBFD01A981A8A428CBF521A8A1A80B28B4292B28CBF5B1ACB1A82429BB201D32F
S325080048A0834208D2934234BF0023012302AA02EB430323F8081CBDF80000BDF80230184426
S325080048C0400803B0F0BD00BF00D6030838B501251A4C042294F86C10206EFCF7B9FB94F81A
S325080048E07C10206F0322FCF7B3FB236F1A6894F87C3005FA03F31B04136194F85C10206D70
S325080049000322FCF7A5FB236D1A6894F85C3005FA03F31B041361D4F87001032294F87C11A4
S32508004920FCF796FBD4F8703194F87C211B6895401D619020BDE83840FFF774BF00D60308A2
S3250800494008B5B020FFF76EFF092894BF0020012008BD38B505460C46FFF7F2FF58B19020A5
S32508004960FFF760FF2880D020FFF75CFF2080BDE83840FFF7E5BF38BD022870B502460D46B5
S3250800498039D0052836D100262C4C0222236801215B0103F184431E602046FCF7F5FE28490B
S325080049A04FF6FF70B1FBF5F11122814228BF014623685E629A62D8629A69204622F0FF0282
S325080049C09A6159635B0103F184430121DE611D4AFCF740FE02213220FCF79EFC0122236852
S325080049E05B0103F18443C3F8802223685B0103F184431A6070BD0026134C01212368204654
S32508004A005B0103F184431E60FCF7BEFE40F2E73223680E495E62B1FBF5F19A624FF6FF7213
S32508004A20914228BF1146DA6220465963084A0121FCF710FE03211C20CEE700BF300200205E
S32508004A4000093D00654D0208C401002040190100555F020802280CD005280CD1074B1B6864
S32508004A605B0103F18443D3F88401003018BF01207047034BF3E70020704700BF30020020D2
S32508004A80C4010020013807289ABF024B53F8200000207047D0E303080649D1F8303391F811
S32508004AA03C131A680123D0688B404340D360FCF72BBC00BF00D6030870470368C9B21B68A0
S32508004AC01847704710B504460022FBF751FD23690121BDE8104093F99100FCF71DBC0000B5
S32508004AE003222DE9F0410F4D0F4C95F900702A70012288462270064610B10C4B1B681E4421
S32508004B0023784BB126B1094B1B689B1B002B03DA404600F06FF9F3E700232F702370BDE8D2
S32508004B20F08100BF9C200020321E0020CC4600200023054A9A56824204D00133192BF8D17E
S32508004B4000207047012070478CE5030808B500F043FBBDE80840014800F018BB79E40308D0
S32508004B6008B51CF06FFB1CF0D1FBFE201BF030FABDE808401BF010BA054BD3F8802193F8C0
S32508004B808C114FF4803312688B401361704700BF00D603080E4AD2F8D03292F8DC12186848
S32508004BA0012303FA01F109040161D2F84014086892F84C1403FA01F109040161D2F81014A1
S32508004BC092F81C24096893401B040B61FFF7D4BF00D60308044BD3F8802193F88C110123BD
S32508004BE012688B401361704700D6030840B9054BD3F8802193F88C11012312688B4013619C
S32508004C00704700BF00D60308012130B4124BD3F8D022106893F8DC2201FA02F202610F4865
S32508004C20027822F001040470D3F84044256893F84C4401FA04F42C6122F003040470D3F892
S32508004C40104493F81C342468994022F007022161027030BCFFF7BEBF00D60308AB38002060
S32508004C60074B1B784BB9074B93F90000012805D0054B1878C0F3800070470020704700BF01
S32508004C802820002040380020884500200B4B1B788BB90B4B93F90030022B0CD0094B1B78EA
S32508004CA0C3F3C00040B1084AD07828B1C3F3800080F0010070470120704700BF28200020AF
S32508004CC040380020884500206845002008B5FFF7DDFF10B90022034B1A60BDE808401AF03B
S32508004CE05BBA00BFDC38002038B5334B05461B78032B01D80CF098FD30490C6815B9304B87
S32508004D001B7813B101252F4B1C602F4B1B682BB12C4A12681344E31A002B10DA2B4B1B68E7
S32508004D2053BB2B4D04F03CFE04F0F6FE2B68E31A002B03DB64341CF0C1F92C6038BD00F061
S32508004D404BFA244B244C1968244800F04BFA94F900200AB17F2A03D10A212148FFF7ADFEE5
S32508004D6094F900301BB10A211E48FFF7A6FE00221146104600F092F81B4A10781B4A12784C
S32508004D80904202D00F4B1C60CBE7194A35B90D48096800680344CB1A002B02DA0023137081
S32508004DA0BFE71378002BBCD101231370FFF712FF01F044FCB5E700BFC0220020CC4600208E
S32508004DC028200020A0200020A8200020440600202C1E0020B4200020341E00203CE4030830
S32508004DE008150020381500208A3F00208B3F0020291E002010B5FFF777FF20F00FFE204B08
S32508004E001B78002B3BD01F4B1B783BB31E490A7822BBFFF725FF10B91C4B1B78F3B11C4B22
S32508004E2093F90020002AA4BF02F1FF321A70194AD2F8F00092F8FC4001220068A240806845
S32508004E40024204BF05221A7093F90030002B05DA01230B7005F0BAF91CF058FAFEF79EFD91
S32508004E6023F016FD0AF04EFF19F09EF918F076FD094B1B781BB9BDE8104021F0E5BB10BD6E
S32508004E80311E00203D06002035200020282000203620002000D60308A42000200D4604467D
S32508004EA0164608B520F0BAFC00F096F9074800F06DF907490748002D18BF2946002C18BFCC
S32508004EC0204618F07DFC304600F006F888E4030814E4030879E5030810B540F2E933044639
S32508004EE0013B08D000BF00BF00BF42F62F22013A00BFFCD1F4E772B640F2E933013B08D09E
S32508004F0000BF00BF00BF41F29312013A00BFFCD1F4E720F083FC24B1FFF776FEFFF7BCFD4F
S32508004F20FCE7FFF757FEF9E713B5614A614C13684FF4E13123F0E06343F0007313605E4850
S32508004F40FFF7C0FD4FF4E1315C482368FFF7BAFD236800F03BF95A4800F018F9FEF7FCFC20
S32508004F60584B092293F8FC10D3F8F000FCF770F80022554B1A700522544B1A70FFF7A1FD78
S32508004F80FEF70EFDC307044602D5514800F0FEF8A00702D54F4800F0F9F8610702D54E48CE
S32508004FA000F0F4F8220702D54C4800F0EFF8A30602D54B4800F0EAF84A4CFEF7F0FC4A48AE
S32508004FC000F0E4F894F900300BB17F2B03D120213948FFF772FD94F900301BB12021374890
S32508004FE0FFF76BFD414800F0D1F894F900300BB17F2B03D10A213048FFF75FFD94F900305A
S325080050001BB10A212D48FFF758FD00F0DFF8384800F0BCF800F0DAF8364800F0B7F800F011
S32508005020D5F80020FBF7F4F90DF10701091A324800F0F6F84FF4C861304800F0F1F894F9CB
S3250800504000300BB17F2B03D10A211B48FFF735FD94F900301BB10A211848FFF72EFD284C79
S3250800506004F088FC18F03CFB0EF062FA002018F033FF237823B91EF0F3FA08B101232370D5
S3250800508018F096F91AF088FF1E4820F0C5FA1AF053F81AF073FD1FF093FA00201AF09AFD79
S325080050A0FFF70AFD0122184B1A7002B010BD00BF04000140CC460020081500203815002076
S325080050C02135040800D603083520002036200020B2E40308BBE40308CCE40308DEE40308C1
S325080050E0EFE40308341E002085E5030800E5030807E503083CE5030853E5030862E5030835
S32508005100281E00207D410020311E002010B50020FFF770FE23F062FB134B1B785B0613D5DB
S3250800512022F0AAFE0BF0A2FFFFF71AFD19F0DCFF20F074FB002108461FF0F4FF00220B4BB2
S325080051401A700B4B0B4A1A600B4C2378102B05D10A480CF061F808B1012323700CF088F9FB
S32508005160BDE810401AF03CBD8845002035060020AC220020A8E40308311E0020ACE4030852
S32508005180014822F05BBC00BF301E002070B5054615F9014B94B10A4E96F900300BB17F2BD6
S325080051A003D121460748FFF788FC96F90030002BEED021460448FFF780FCE9E770BD00BF54
S325080051C0341E002008150020381500200148FFF7DDBF00BFACE503080148FFF7D7BF00BFDB
S325080051E0A5E5030838B50B4C0D46FFF7CFFF94F900200AB17F2A03D129460748FBF7A8FA7A
S3250800520094F900302BB12946BDE838400348FBF79FBA38BD341E00200815002038150020B4
S3250800522038B50C4C0D46FFF7B1FF94F900200AB17F2A04D10A2229460748FBF7EFFA94F9EA
S32508005240003033B12946BDE838400A220348FBF7E5BA38BD341E0020081500203815002087
S3250800526038B50C4C0D46FFF791FF94F900200AB17F2A04D10A2229460748FBF7E2FA94F9D7
S32508005280003033B12946BDE838400A220348FBF7D8BA38BD341E0020081500203815002054
S325080052A037B5114C0D46FFF771FF94F900200AB17F2A09D1284624F041FB02230246009335
S325080052C00A480B46FBF7ACFB94F900304BB1284624F034FB02230246009305480B46FBF78A
S325080052E09FFB03B030BD00BF341E0020081500203815002038B50C4C0D46FFF747FF94F92A
S3250800530000200AB17F2A04D10A2229460748FBF7B9FA94F9003033B12946BDE838400A223E
S325080053200348FBF7AFBA38BD341E0020081500203815002038B50C4C0D46FFF727FF94F967
S3250800534000200AB17F2A04D10A2229460748FBF7A3FA94F9003033B12946BDE838400A2214
S325080053600348FBF799BA38BD341E0020081500203815002038B50446013CE4B2FF2C12D067
S32508005380094D95F900300BB17F2B03D120210748FFF793FB95F90030002BEDD0202104486A
S325080053A0FFF78BFBE8E738BD341E00200815002038150020F8B5069C074616461D4611B166
S325080053C00846FFF7E3FE002F14BF30462846FFF7DDFE24B12046BDE8F840FFF7D7BEF8BD8B
S325080053E0034A044B002814BF10461846FFF7CEBECFF70308BFF6030810B50A4CFFF7F0FF41
S3250800540094F900200AB17F2A03D10A210648FFF754FB94F900301BB10A210448FFF74DFB9D
S3250800542010BD00BF341E00200815002038150020F8B5069C07460E46154613B11846FFF753
S32508005440A5FE39681148FFF72BFF31681048FFF727FF29680F48FFF723FF24B12046BDE894
S32508005460F840FFF793BE0C4C94F900200AB17F2A03D10A210948FFF720FB94F900301BB14C
S325080054800A210748FFF719FBF8BD00BF22E4030829E4030830E40308341E0020081500200F
S325080054A03815002010B50446322C06D93220323CFEF736FA20F0B2FAF6E72046FEF730FA22
S325080054C0BDE8104020F0AABA38B50123034C25782370FFF7E7FF257038BD00BFA4200020BC
S325080054E038B5094C25882DB2002D0CD0CCBF012100211FF08DFC2388002DCCBF03F1FF33D8
S3250800550001331BB2238038BD381E0020012303FA00F010B5C0B20C461BF066F868B9074AF9
S32508005520A1B213880B441380054B1A88114409B21980044B1A68044B1A6010BD361E002017
S32508005540381E0020CC460020A02000200A4610B5074B044603EB80035969106824F066FEE1
S3250800556025F040F801B22046BDE81040FFF7CEBFD43F002070B50A4C04F5C876002554F8E9
S325080055802510084625F018F838B901350A2DF6D12834B442F2D1012070BD0020FCE700BF0B
S325080055A0401E002010B50C4C2378834212D01BF0ADFE237843B109481BF0F0FD00232370BC
S325080055C0BDE810401AF0E8BC0123044823701BF00FFEF5E710BD00BF883F002094060020F6
S325080055E02DE9F041244D04460F460146286824F0B1FF00283DD1214B1E78FFF7D3FF00218A
S32508005600204624F0CFFF00B900242C601C49204624F0BEFF20B11B49204624F0AFFF30BBE7
S3250800562021464FF07E5024F0B5FE174B174A1860174B1A60EEB1174C0120D4F800806668CD
S32508005640A568FFF7AFFFA7B14146206824F082FF48B13146606824F07DFF20B1A16828467F
S3250800566024F078FF28B9BDE8F0411AF07DBC0020DBE7BDE8F08100BF643F0020883F002036
S32508005680BD3786B5BD378635903F0020F0FF79C4F03800209406002000F0F8B810B5014655
S325080056A04FF0010424F088FF00B9044604F0010010BD00000000000037B50546006824F085
S325080056C03DF90022204B23F0DBFF1BA3D3E9002323F0D6FF1AA3D3E9002324F087F924F043
S325080056E01FFC40B2C3B20A2B38BF0446686828BF4FF0FF3424F022F90022134B23F0C0FFFA
S325080057000DA3D3E9002323F0BBFF0DA3D3E9002324F06CF924F004FC40B2C3B20A2B34BF74
S3250800572003464FF0FF330020E4B264F30700DBB263F30F2003B030BD00000020C77134400F
S3250800574000000060210B993F000067400120FFF751BB0000024B1A7818701046704700BFDA
S32508005760A42000200148FFF711BD00BF94E603082DE9F341FFF7FEFE002857D0FFF726FD42
S325080057802C48FFF703FD00262B4D002455F824104FEA8408084624F00FFF00283ED1FFF7EC
S325080057A015FD31462548FFF73BFD254F21462548FFF736FD2448FFF7E9FC97F900300BB183
S325080057C07F2B0AD155F8080024F0B8F80423024600931E480B46FBF723F997F9003053B192
S325080057E055F8080024F0AAF804230246009318480B46FBF715F997F900300BB17F2B03D1E3
S325080058000A211248FFF759F997F900301BB10A210F48FFF752F94B20FFF756FE01340A2C3E
S32508005820B4D101360A2E05F12805AED102B0BDE8F08100BF7CE60308401E002088E60308D9
S32508005840341E002091E6030830E40308081500203815002007B5FFF785FF074B074A187814
S32508005860074B08490093084BFFF7A4FD322003B05DF804EBFFF728BE883F0020F82D0408BD
S3250800588008E60308F9E50308F6E5030810B50A4B00201C78FFF786FEFF22084B00211A70CB
S325080058A007484FF4C87230F0EDF91CB1BDE810401AF05ABB10BD00BF883F00203C1E00203A
S325080058C0401E002008B50020FFF76CFEBDE80840014800F003B800BF0000C07F064B03F5D7
S325080058E0C871002243F8220001320A2AFAD128338B42F6D1704700BF401E002070B5604CFC
S325080059000E461546FFF736FD94F900300BB17F2B03D128215B48FFF7D0F894F90030002B18
S3250800592000F0A18028215848FFF7C7F8632E22DC94F900300BB17F2B03D120215148FFF754
S32508005940BCF894F90030002B00F0918020214E48FFF7B3F8092E0EDC94F90030002B76D1D4
S3250800596020214848FFF7A9F894F900303BB120214548FFF7A2F894F90030002B6AD10A225B
S3250800598031464048FAF74AFF94F9003023B10A2231463D48FAF742FF94F900300BB17F2BB2
S325080059A003D12C213748FFF788F894F90030002B60D02C213448FFF780F8632D20DC94F95B
S325080059C00030002B49D120212E48FFF776F894F90030002B51D020212B48FFF76EF8092DDA
S325080059E00EDC94F90030002B3AD120212548FFF764F894F9003043B120212348FFF75DF814
S32508005A0094F900300BB17F2B04D10A2229461D48FAF704FF94F9003023B10A2229461A48FE
S32508005A20FAF7FCFE94F900300BB17F2B03D129211448FFF742F894F900301BB12921124873
S32508005A40FFF73BF8BDE870400520FFF73DBD7F2B8AD185E77F2B97D191E77F2BB7D1B2E7DF
S32508005A607F2BC6D1C1E7632E7FF762AF87E7092E85DC75E7632DC8DCA5E7092DC5DCB4E783
S32508005A80341E0020081500203815002070B506460720FFF76FFC0024164D95F900300BB1E2
S32508005AA07F2B03D120211448FFF707F895F900301BB120211148FFF700F895F900300BB13C
S32508005AC07F2B04D10A2221460B48FAF7A7FE95F9003023B10A2221460848FAF79FFE304644
S32508005AE00134FFF747FC0A2CD6D12046BDE87040FFF7EABC341E00200815002038150020DA
S32508005B0080B58EB002AF78600120FFF723FE034687F82D30082387F82C303E2387F82B30DD
S32508005B207B6803F00303002B0CBF0123002387F82A307B68012B0CBF0123002387F829306C
S32508005B407B68022B0CBF0123002387F828307B6803F00403002B14BF0123002387F8273046
S32508005B60B648FFF713FB97F82A30002B28D0B448FFF70CFBB8226FF0B7010420FFF7BEFE49
S32508005B80B822B8213E20FFF7B9FEAE4B93F90030002B04D0AB4B93F900307F2B03D10A212A
S32508005BA0A948FEF78AFFA74B93F90030002B03D00A21A648FEF781FF0620FFF767FF0CE0C0
S32508005BC0A348FFF7E3FA97F82930002B01D0A14B00E0A14B1846FFF7D9FAA04A07F114033D
S32508005BE092E8030083E803009D4B1B68FB6107F10C0307F1140292E8030083E80300FA6883
S32508005C00FB691B681946104624F008FA0346FB603A69FB695B681946104624F0FFF903464C
S32508005C203B6107F10C031846FFF746FD03463B8197F8283083F00103DBB2002B16D0814B4F
S32508005C4093F90030002B04D07E4B93F900307F2B03D10A217C48FEF730FF7A4B93F90030E4
S32508005C60002B03D00A217948FEF727FF092387F82F3097F92F30002BC0F2C58197F82A300C
S32508005C80002B3AD097F92F30092B16DC6D4B93F90030002B04D06B4B93F900307F2B03D149
S32508005CA020216948FEF709FF664B93F90030002B03D020216548FEF700FF624B93F9003031
S32508005CC0002B04D05F4B93F900307F2B06D197F92F300A2219465C48FAF7A0FD594B93F9F4
S32508005CE00030002B06D097F92F300A2219465748FAF794FD5B48FFF749FA002387F82E30EE
S32508005D0097F82E30092B00F2468197F82E3097F90820934207D197F9093097F92F209A42C5
S32508005D2001D1012300E0002387F8263097F82A30002B24D0434B93F90030002B04D0414BAA
S32508005D4093F900307F2B0AD197F82630002B01D05B2300E0202319463B48FEF7AEFE394B6B
S32508005D6093F90030002B0AD097F82630002B01D05B2300E0202319463448FEF79EFE97F8D7
S32508005D802E2097F92F10384813469B0013445B000B4450F823303B6297F82830002B40F0E9
S32508005DA09580386AFFF77AFC0346002B0AD097F82A30002B01D02D4B00E02D4B1846FFF75B
S32508005DC0E5F983E097F82A30002B03D197F82930002B7BD097F82A30002B50D04FF00001BA
S32508005DE0386A24F0D5FB0346002B48D0154B93F90030002B04D0134B93F900307F2B0ED1C5
S32508005E004FF00001386A24F0CDFB0346002B01D02B2300E0202319460B48FEF74EFE094BB9
S32508005E2093F90030002B2AD04FF00001386A24F0B9FB0346002B1DD02B231CE0B4E503087A
S32508005E40CCE50308341E002008150020381500208C420408D0E50308D8E503089406002040
S32508005E60182C0408E0E50308401E0020E4E50308ECE50308202319469448FEF71EFE944B58
S32508005E8093F90030002B04D0914B93F900307F2B0BD1386A23F052FD0A46014603230093C7
S32508005EA013460A468B48FAF7BBFD894B93F90030002B0BD0386A23F041FD0A460146032369
S32508005EC0009313460A468148FAF7AAFD97F82930002B1AD097F82E30082B16D87C4B93F9B9
S32508005EE00030002B04D07A4B93F900307F2B03D109217848FEF7E1FD754B93F90030002B02
S32508005F0003D009217148FEF7D8FD97F82A30002B24D06F4B93F90030002B04D06C4B93F933
S32508005F2000307F2B0AD197F82630002B01D05D2300E0202319466748FEF7BFFD644B93F920
S32508005F400030002B0AD097F82630002B01D05D2300E0202319465D48FEF7AFFD5C4B93F9A2
S32508005F600030002B04D05A4B93F900307F2B02D15848FAF7D1FA564B93F90030002B02D050
S32508005F805248FAF7C9FAFFF7E1FB97F82E30013387F82E30B4E697F8283083F00103DBB250
S32508005FA0002B16D04A4B93F90030002B04D0484B93F900307F2B03D10A214648FEF77DFD7D
S32508005FC0434B93F90030002B03D00A213F48FEF774FD97F92F30002B0DD097F82A30002B48
S32508005FE009D097F8273083F00103DBB2002B02D03948FFF7CBF897F92F30DBB2013BDBB254
S3250800600087F82F3035E697F82A30002B54D00620FFF73CFD2E4B93F90030002B04D02C4B41
S3250800602093F900307F2B03D10A212A48FEF745FD274B93F90030002B03D00A212348FEF78D
S325080060403CFD6FF0B7026FF0B7010420FFF756FC6FF0B702B8213E20FFF750FC1C4B93F9DA
S325080060600030002B04D01A4B93F900307F2B03D10A211848FEF721FD154B93F90030002B5F
S3250800608003D00A211148FEF718FD114B93F90030002B04D00E4B93F900307F2B03D10A21BC
S325080060A00C48FEF70AFD0A4B93F90030002B03D00A210648FEF701FD97F82D301846FFF7C7
S325080060C049FB00BF3037BD4680BD00BF38150020341E002008150020F0E5030808B51DF083
S325080060E0FDFA20B90348FFF751F8012008BD0020FCE700BF10E60308FFF7C8BB014B18684A
S32508006100704700BFCC460020F8B506684768084623F014FC02460B4617A1D1E9000123F06F
S32508006120ADFA17A3D3E9002323F0AAFA04460D463046314624F07AF839460646384624F0ED
S3250800614075F80146304623F069FF23F0F7FB224606460F462B462046294623F047FC02469A
S325080061600B46304639464FF0010423F0BBFE00B9044604F00100F8BD000000000020674047
S32508006180000000E0E2361A3F2DE9F74FD0F800900C46484623F0D2FB0022514B23F070FAF1
S325080061A04DA3D3E9002323F021FC23F0B9FE40B20928A8BF0920D4F8008020EAE075404624
S325080061C023F0BCFB0022464B23F05AFA42A3D3E9002323F00BFC23F0A3FE40B20928A8BFB1
S325080061E00920EEB220EAE074304600F07DF88346701C0A26C0B200F077F8082D2A46A8BF2D
S3250800620008227543374F291957F821A00132594601904846009223F0FFFE019B8146594621
S32508006220184623F0F9FE8346009A51465643331957F8230023F0F0FE494623F0F7FF59465F
S3250800624024F0A8F8514623F0E9FE082C2246A8BF08220132154457F82550164482462946DD
S3250800626057F8260023F0D8FE494623F0DFFF594624F090F8294623F0D1FEE4B2074620465D
S3250800628000F04EF801340546E0B200F049F829460646404623F0C0FE51460446384623F0F3
S325080062A0BBFE0146204623F0C1FF29460446304623F0B2FE0146204624F06CF8514623F0D6
S325080062C0ADFE0146044624F077F900B10024204603B0BDE8F08F00BF00000060210B993FBB
S325080062E000006740401E0020092808B503D8094A52F8200008BD23F045FF074923F096FFD1
S3250800630023F01CFB0022054B23F0B8F923F030FEF0E700BF2CE60308398E23420000674048
S32508006320092808B503D8094A52F8200008BD23F029FF074923F07AFF23F000FB0022054B6D
S3250800634023F09CF923F014FEF0E700BF54E60308398E234200006740FF23037043707047B5
S3250800636090F90030002BA3BF4078C043C0F3C010002070470022014B1A707047713700203D
S32508006380024B1878C0F38000704700BFFD37002007B5064B02A840F8043D01231A46194602
S325080063A019F086FF03B05DF804FB00BF0000964313B59DF81040CDE9003413460A46011D44
S325080063C01CF056F802B010BD01201BF03FBF00201BF03CBF38B50E4B1B6819685D68084629
S325080063E023F024FF29460446284623F01FFF0146204623F013FE2CF071FC0649044624F0FA
S32508006400B3F800B1034C2146034823F005FE38BD182C040800002041000039434138C3B2EB
S32508006420192B2DD8174A1068D84010F0010028D0154AD25C12B3154B19688B188A56A2F1D2
S325080064403001C9B2092906D92E2A08D15A78303A092A88BF00230E4A0120136070472D2A6D
S3250800646001D02B2A0AD193F90110A1F13002D2B2092AF0D92E2901D19A78E8E70023EAE72E
S3250800648000207047D8200020BA200020B4200020DC20002008B5FFF7C1FF20B1024B1868E4
S325080064A0003018BF012008BDDC20002038B50D4B1868A8B10246154612F9014B34F0200168
S325080064C00AD0452C01D0652CF5D100212970186831F07CFB2C7038BDBDE8384031F076BB69
S325080064E00020F8E7DC200020034B186818B10A22002131F04BBC7047DC20002008B5FFF7E1
S32508006500F3FF00B208BD08B5FFF7D0FF08BD10B50C46FFF7BFFF10B1FFF7C8FF04462046C4
S3250800652010BD10B50C46FFF7B5FF10B1FFF7DCFF04B2204610BD0000014809F08DBB00BFFB
